{
  "_format": "hh-sol-artifact-1",
  "contractName": "Campground",
  "sourceName": "contracts/Campground.sol",
  "abi": [
    {
      "inputs": [],
      "stateMutability": "nonpayable",
      "type": "constructor"
    },
    {
      "anonymous": false,
      "inputs": [
        {
          "indexed": false,
          "internalType": "address",
          "name": "_customer",
          "type": "address"
        },
        {
          "indexed": false,
          "internalType": "uint256",
          "name": "amount",
          "type": "uint256"
        }
      ],
      "name": "book",
      "type": "event"
    },
    {
      "anonymous": false,
      "inputs": [
        {
          "indexed": false,
          "internalType": "address",
          "name": "_customer",
          "type": "address"
        }
      ],
      "name": "checkout",
      "type": "event"
    },
    {
      "inputs": [
        {
          "internalType": "uint256",
          "name": "",
          "type": "uint256"
        }
      ],
      "name": "campsiteList",
      "outputs": [
        {
          "internalType": "uint256",
          "name": "campsiteNumber",
          "type": "uint256"
        },
        {
          "internalType": "bool",
          "name": "status",
          "type": "bool"
        },
        {
          "internalType": "address",
          "name": "attendeeAddress",
          "type": "address"
        }
      ],
      "stateMutability": "view",
      "type": "function"
    },
    {
      "inputs": [],
      "name": "getAllSites",
      "outputs": [
        {
          "components": [
            {
              "internalType": "uint256",
              "name": "campsiteNumber",
              "type": "uint256"
            },
            {
              "internalType": "bool",
              "name": "status",
              "type": "bool"
            },
            {
              "internalType": "address",
              "name": "attendeeAddress",
              "type": "address"
            }
          ],
          "internalType": "struct Campground.Campsite[]",
          "name": "",
          "type": "tuple[]"
        }
      ],
      "stateMutability": "view",
      "type": "function"
    },
    {
      "inputs": [],
      "name": "getListLength",
      "outputs": [
        {
          "internalType": "uint256",
          "name": "",
          "type": "uint256"
        }
      ],
      "stateMutability": "view",
      "type": "function"
    },
    {
      "inputs": [
        {
          "internalType": "string",
          "name": "_guestName",
          "type": "string"
        },
        {
          "internalType": "uint256",
          "name": "_sightNumber",
          "type": "uint256"
        }
      ],
      "name": "guestCheckin",
      "outputs": [],
      "stateMutability": "payable",
      "type": "function"
    },
    {
      "inputs": [
        {
          "internalType": "uint256",
          "name": "_sightNumber",
          "type": "uint256"
        }
      ],
      "name": "guestCheckout",
      "outputs": [],
      "stateMutability": "nonpayable",
      "type": "function"
    },
    {
      "inputs": [],
      "name": "owner",
      "outputs": [
        {
          "internalType": "address payable",
          "name": "",
          "type": "address"
        }
      ],
      "stateMutability": "view",
      "type": "function"
    },
    {
      "inputs": [
        {
          "internalType": "uint256",
          "name": "_sightNumber",
          "type": "uint256"
        }
      ],
      "name": "viewCampgroundStatus",
      "outputs": [
        {
          "internalType": "bool",
          "name": "",
          "type": "bool"
        }
      ],
      "stateMutability": "view",
      "type": "function"
    }
  ],
  "bytecode": "0x608060405234801561001057600080fd5b50336000806101000a81548173ffffffffffffffffffffffffffffffffffffffff021916908373ffffffffffffffffffffffffffffffffffffffff1602179055506000600190506000805b600a81101561014e576000604051806060016040528083815260200185151581526020018473ffffffffffffffffffffffffffffffffffffffff16815250905060028190806001815401808255809150506001900390600052602060002090600202016000909190919091506000820151816000015560208201518160010160006101000a81548160ff02191690831515021790555060408201518160010160016101000a81548173ffffffffffffffffffffffffffffffffffffffff021916908373ffffffffffffffffffffffffffffffffffffffff16021790555050505080806101469061018f565b91505061005b565b5050506101d7565b7f4e487b7100000000000000000000000000000000000000000000000000000000600052601160045260246000fd5b6000819050919050565b600061019a82610185565b91507fffffffffffffffffffffffffffffffffffffffffffffffffffffffffffffffff82036101cc576101cb610156565b5b600182019050919050565b61140880620001e76000396000f3fe6080604052600436106100705760003560e01c8063b65c531b1161004e578063b65c531b1461010a578063d012307a14610135578063d69dae2a14610151578063ec5b38261461017a57610070565b806302c286071461007557806363424202146100a05780638da5cb5b146100df575b600080fd5b34801561008157600080fd5b5061008a6101b7565b6040516100979190610a4d565b60405180910390f35b3480156100ac57600080fd5b506100c760048036038101906100c29190610aaf565b610291565b6040516100d693929190610b09565b60405180910390f35b3480156100eb57600080fd5b506100f46102f8565b6040516101019190610b61565b60405180910390f35b34801561011657600080fd5b5061011f61031c565b60405161012c9190610b7c565b60405180910390f35b61014f600480360381019061014a9190610cdd565b61032e565b005b34801561015d57600080fd5b5061017860048036038101906101739190610aaf565b6106e0565b005b34801561018657600080fd5b506101a1600480360381019061019c9190610aaf565b61089c565b6040516101ae9190610d39565b60405180910390f35b60606002805480602002602001604051908101604052809291908181526020016000905b828210156102885783829060005260206000209060020201604051806060016040529081600082015481526020016001820160009054906101000a900460ff161515151581526020016001820160019054906101000a900473ffffffffffffffffffffffffffffffffffffffff1673ffffffffffffffffffffffffffffffffffffffff1673ffffffffffffffffffffffffffffffffffffffff1681525050815260200190600101906101db565b50505050905090565b600281815481106102a157600080fd5b90600052602060002090600202016000915090508060000154908060010160009054906101000a900460ff16908060010160019054906101000a900473ffffffffffffffffffffffffffffffffffffffff16905083565b60008054906101000a900473ffffffffffffffffffffffffffffffffffffffff1681565b60008060028054905090508091505090565b662386f26fc1000080341015610379576040517f08c379a000000000000000000000000000000000000000000000000000000000815260040161037090610db1565b60405180910390fd5b81600a8111156103be576040517f08c379a00000000000000000000000000000000000000000000000000000000081526004016103b590610e43565b60405180910390fd5b6001816103cb9190610e92565b9050600281815481106103e1576103e0610ec6565b5b906000526020600020906002020160010160009054906101000a900460ff1661043f576040517f08c379a000000000000000000000000000000000000000000000000000000000815260040161043690610f41565b60405180910390fd5b60018361044c9190610e92565b9250600060405180606001604052808681526020013373ffffffffffffffffffffffffffffffffffffffff16815260200185815250905080600160003373ffffffffffffffffffffffffffffffffffffffff1673ffffffffffffffffffffffffffffffffffffffff16815260200190815260200160002060008201518160000190816104d89190611178565b5060208201518160010160006101000a81548173ffffffffffffffffffffffffffffffffffffffff021916908373ffffffffffffffffffffffffffffffffffffffff1602179055506040820151816002015590505060006002858154811061054357610542610ec6565b5b906000526020600020906002020160010160006101000a81548160ff02191690831515021790555033600285815481106105805761057f610ec6565b5b906000526020600020906002020160010160016101000a81548173ffffffffffffffffffffffffffffffffffffffff021916908373ffffffffffffffffffffffffffffffffffffffff16021790555060008060008054906101000a900473ffffffffffffffffffffffffffffffffffffffff1673ffffffffffffffffffffffffffffffffffffffff16346040516106169061127b565b60006040518083038185875af1925050503d8060008114610653576040519150601f19603f3d011682016040523d82523d6000602084013e610658565b606091505b5091509150600161069e576040517f08c379a0000000000000000000000000000000000000000000000000000000008152600401610695906112dc565b60405180910390fd5b7f03efb5c4de95d70973035d25c9abb939b28102056a31e11b024c4e13b8bac88d33346040516106cf9291906112fc565b60405180910390a150505050505050565b806001816106ee9190610e92565b90506000806002838154811061070757610706610ec6565b5b9060005260206000209060020201604051806060016040529081600082015481526020016001820160009054906101000a900460ff161515151581526020016001820160019054906101000a900473ffffffffffffffffffffffffffffffffffffffff1673ffffffffffffffffffffffffffffffffffffffff1673ffffffffffffffffffffffffffffffffffffffff16815250509050806040015191508173ffffffffffffffffffffffffffffffffffffffff163373ffffffffffffffffffffffffffffffffffffffff1614610812576040517f08c379a000000000000000000000000000000000000000000000000000000000815260040161080990611397565b60405180910390fd5b60018461081f9190610e92565b935060016002858154811061083757610836610ec6565b5b906000526020600020906002020160010160006101000a81548160ff0219169083151502179055507f3dae0d1aa955b91345f44d2aea692fbb13950598ea5675e7dfce2a00962d3dd93360405161088e91906113b7565b60405180910390a150505050565b60006001826108ab9190610e92565b9150600282815481106108c1576108c0610ec6565b5b906000526020600020906002020160010160009054906101000a900460ff169050919050565b600081519050919050565b600082825260208201905092915050565b6000819050602082019050919050565b6000819050919050565b61092681610913565b82525050565b60008115159050919050565b6109418161092c565b82525050565b600073ffffffffffffffffffffffffffffffffffffffff82169050919050565b600061097282610947565b9050919050565b61098281610967565b82525050565b60608201600082015161099e600085018261091d565b5060208201516109b16020850182610938565b5060408201516109c46040850182610979565b50505050565b60006109d68383610988565b60608301905092915050565b6000602082019050919050565b60006109fa826108e7565b610a0481856108f2565b9350610a0f83610903565b8060005b83811015610a40578151610a2788826109ca565b9750610a32836109e2565b925050600181019050610a13565b5085935050505092915050565b60006020820190508181036000830152610a6781846109ef565b905092915050565b6000604051905090565b600080fd5b600080fd5b610a8c81610913565b8114610a9757600080fd5b50565b600081359050610aa981610a83565b92915050565b600060208284031215610ac557610ac4610a79565b5b6000610ad384828501610a9a565b91505092915050565b610ae581610913565b82525050565b610af48161092c565b82525050565b610b0381610967565b82525050565b6000606082019050610b1e6000830186610adc565b610b2b6020830185610aeb565b610b386040830184610afa565b949350505050565b6000610b4b82610947565b9050919050565b610b5b81610b40565b82525050565b6000602082019050610b766000830184610b52565b92915050565b6000602082019050610b916000830184610adc565b92915050565b600080fd5b600080fd5b6000601f19601f8301169050919050565b7f4e487b7100000000000000000000000000000000000000000000000000000000600052604160045260246000fd5b610bea82610ba1565b810181811067ffffffffffffffff82111715610c0957610c08610bb2565b5b80604052505050565b6000610c1c610a6f565b9050610c288282610be1565b919050565b600067ffffffffffffffff821115610c4857610c47610bb2565b5b610c5182610ba1565b9050602081019050919050565b82818337600083830152505050565b6000610c80610c7b84610c2d565b610c12565b905082815260208101848484011115610c9c57610c9b610b9c565b5b610ca7848285610c5e565b509392505050565b600082601f830112610cc457610cc3610b97565b5b8135610cd4848260208601610c6d565b91505092915050565b60008060408385031215610cf457610cf3610a79565b5b600083013567ffffffffffffffff811115610d1257610d11610a7e565b5b610d1e85828601610caf565b9250506020610d2f85828601610a9a565b9150509250929050565b6000602082019050610d4e6000830184610aeb565b92915050565b600082825260208201905092915050565b7f4e6f7420656e6f7567682065746865722e000000000000000000000000000000600082015250565b6000610d9b601183610d54565b9150610da682610d65565b602082019050919050565b60006020820190508181036000830152610dca81610d8e565b9050919050565b7f506c65617365207069636b2066726f6d2073697465732031207468726f75676860008201527f2031302e00000000000000000000000000000000000000000000000000000000602082015250565b6000610e2d602483610d54565b9150610e3882610dd1565b604082019050919050565b60006020820190508181036000830152610e5c81610e20565b9050919050565b7f4e487b7100000000000000000000000000000000000000000000000000000000600052601160045260246000fd5b6000610e9d82610913565b9150610ea883610913565b9250828203905081811115610ec057610ebf610e63565b5b92915050565b7f4e487b7100000000000000000000000000000000000000000000000000000000600052603260045260246000fd5b7f546869732073697465206973206e6f7420617661696c69626c652e0000000000600082015250565b6000610f2b601b83610d54565b9150610f3682610ef5565b602082019050919050565b60006020820190508181036000830152610f5a81610f1e565b9050919050565b600081519050919050565b7f4e487b7100000000000000000000000000000000000000000000000000000000600052602260045260246000fd5b60006002820490506001821680610fb357607f821691505b602082108103610fc657610fc5610f6c565b5b50919050565b60008190508160005260206000209050919050565b60006020601f8301049050919050565b600082821b905092915050565b60006008830261102e7fffffffffffffffffffffffffffffffffffffffffffffffffffffffffffffffff82610ff1565b6110388683610ff1565b95508019841693508086168417925050509392505050565b6000819050919050565b600061107561107061106b84610913565b611050565b610913565b9050919050565b6000819050919050565b61108f8361105a565b6110a361109b8261107c565b848454610ffe565b825550505050565b600090565b6110b86110ab565b6110c3818484611086565b505050565b5b818110156110e7576110dc6000826110b0565b6001810190506110c9565b5050565b601f82111561112c576110fd81610fcc565b61110684610fe1565b81016020851015611115578190505b61112961112185610fe1565b8301826110c8565b50505b505050565b600082821c905092915050565b600061114f60001984600802611131565b1980831691505092915050565b6000611168838361113e565b9150826002028217905092915050565b61118182610f61565b67ffffffffffffffff81111561119a57611199610bb2565b5b6111a48254610f9b565b6111af8282856110eb565b600060209050601f8311600181146111e257600084156111d0578287015190505b6111da858261115c565b865550611242565b601f1984166111f086610fcc565b60005b82811015611218578489015182556001820191506020850194506020810190506111f3565b868310156112355784890151611231601f89168261113e565b8355505b6001600288020188555050505b505050505050565b600081905092915050565b50565b600061126560008361124a565b915061127082611255565b600082019050919050565b600061128682611258565b9150819050919050565b7f5472616e73616374696f6e206661696c656420746f2073656e642e0000000000600082015250565b60006112c6601b83610d54565b91506112d182611290565b602082019050919050565b600060208201905081810360008301526112f5816112b9565b9050919050565b60006040820190506113116000830185610afa565b61131e6020830184610adc565b9392505050565b7f596f7520646964206e6f7420636865636b20696e746f2074686973207369746560008201527f2e00000000000000000000000000000000000000000000000000000000000000602082015250565b6000611381602183610d54565b915061138c82611325565b604082019050919050565b600060208201905081810360008301526113b081611374565b9050919050565b60006020820190506113cc6000830184610afa565b9291505056fea26469706673582212209493a182eecdc94895c524745de34ba67a61ccb7d1d27b56c93431c18694cac564736f6c63430008110033",
  "linkReferences": {},
  "deployedLinkReferences": {}
}